:060000000A128A11E42F30
:100368000134013401340A128A11D3210A128A1184
:1003780083160313111408000A128A11D3210A12D2
:100388008A1183160313111508000A128A11D32142
:100398000A128A1170088312031393000800831647
:1003A800031311081F39031DDA29DB29D32914196E
:1003B800DE29DF29D3290800F300F201731CE5299F
:1003C800E629EA297008F1007108F2070310F00D18
:1003D8000310F30C7308031DF229F329E2297208AC
:1003E8000800F200163072020318FB29FC290D2AB6
:1003F80009307002031C012A022A032A0D2A7208F6
:10040800F100710883120313C7007008F100710826
:10041800C6000800F401F501701C132A142A1A2AD0
:100428007208F4070318F50A7308F507013003107A
:10043800F20DF30DFF3E031D1B2A01300310F10CD2
:10044800F00CFF3E031D222A70087104031D2D2A9B
:100458002E2A102A7508F1007408F0000800F4002C
:100468000830F1007108F500F6017408F100073052
:100478000310F10CFF3E031D3C2A7608F2007207B8
:100488007104F3007308F6000310F40D7008760287
:10049800031C4F2A502A522A7008F6020130F5022E
:1004A800031D572A582A392A76080800752A3B0856
:1004B800FB007B08A4003A08FF00390884000A12F0
:1004C8008A1500200A128A110A128A11C2250A12F4
:1004D8008A11013083120313B9070318BA0A0030CE
:1004E800BA07831203133A08FF00390884000A1276
:1004F8008A1500200A128A11003A031D842A852AC7
:100508005B2A0800F4000A128A11B7210A128A111C
:10051800831203134408F200F3017208F000730811
:10052800F1000A128A11C9210A128A110030F0005A
:10053800F1000A128A11C9210A128A117408F200FC
:10054800F3017208F0007308F1000A128A11C92138
:100558000A128A110A128A11C0210A128A11080085
:100568000030FC000030FB000030FA000030F900D9
:10057800701CBF2AC02AD72A7408F9077508031106
:100588000318013E0319C92AFA077608031103184C
:10059800013E0319D02AFB07770803110318013E0F
:1005A8000319D72AFC070130F8000310F40DF50DE4
:1005B800F60DF70DF80BD92A01300310F30CF20CE5
:1005C800F10CF00CFF3E031DE12A7308720471045C
:1005D8007004031DF02AF12ABC2A7C08F3007B086A
:1005E800F2007A08F1007908F00008008316031376
:1005F80087150716283083120313940083160313F4
:100608009101831203132D08B1002E08B2002F08A0
:10061800B3003008B40002300310B10DB20DB30DB1
:10062800B40DFF3E031D102B3408F3003308F2000D
:100638003208F1003108F0000030F7000030F60011
:100648000030F5006430F4000A128A11B4220A124C
:100658008A11730883120313A3007208A200710899
:10066800A1007008A0000030A7007A30A600123060
:10067800A5000030A4000A128A11AC230A128A11BC
:10068800831203132008FF3E83160313930094017B
:10069800080021300A128A1186220A128A110030B3
:1006A8000A128A1186220A128A117F300A128A11C6
:1006B80086220A128A1122300A128A1186220A1206
:1006C8008A1100300A128A1186220A128A1107300A
:1006D8000A128A1186220A128A110A128A11B7216D
:1006E8000A128A11831203134408F500F6017508EB
:1006F800F0007608F1000A128A11C9210A128A113B
:100708004030F0000030F1000A128A11C9210A12A3
:100718008A11F701F8010030F000F1000A128A117D
:10072800C9210A128A110130F7070318F80A0030A4
:10073800F80704307802003003197702031CA52B50
:10074800A62B8F2B0A128A11C0210A128A110800BF
:10075800003083120313AB000030AA000030A90058
:100768000030A80023082204210420040319BD2B0B
:10077800BE2B0B2CAC01AC0ACE2B0130FD000310B4
:10078800A00DA10DA20DA30DFD0BC32B0130FD0083
:100798007D08AC07A31FD12BD22BC12B0130FD0044
:1007A8000310A80DA90DAA0DAB0DFD0BD42B230822
:1007B8002702031DE92B22082602031DE92B210825
:1007C8002502031DE92B20082402031CEC2BED2B2A
:1007D800FC2B2008A4022108031C210FA5022208D3
:1007E800031C220FA6022308031C230FA7022814A8
:1007F80001300310A30CA20CA10CA00CFF3E031D9A
:10080800FD2B0130AC02031D0A2C0B2CD22B2B081C
:10081800A3002A08A2002908A1002808A0000800AF
:1008280083120313A101F71F1A2C1B2C222CF60983
:10083800F709F60A0319F70AA101A10AF91F252CDD
:10084800262C2F2CF809F909F80A0319F90A01309E
:10085800FA007A08A106A201A30176087704031911
:10086800362C372C6E2CA001A00A452C0130031021
:10087800F60DF70DFF3E031D3B2C0130FA007A08F8
:10088800A007F71F482C492C3A2C01300310A20D61
:10089800A30DFF3E031D4A2C77087902031D562C31
:1008A80076087802031C592C5A2C612C7608F80219
:1008B8007708031CF903F902221401300310F70C1E
:1008C800F60CFF3E031D622C0130A002031D6D2CA7
:1008D8006E2C492C21080319722C732C782CA20930
:1008E800A309A20A0319A30A2308F7002208F6009D
:1008F80008008316031388010B3083120313BE000C
:100908002630BD005D30BC00BC0B882CBD0B882C8C
:10091800BE0B882C003083120313B0000030AF00E8
:100928000730AE00D030AD000A128A11FA220A123E
:100938008A11783083120313BC003C08F50002309A
:100948000A128A11F6240A128A110A128A114D23F0
:100958000A128A11FF3083120313BC003C08880670
:10096800F001F00A01300A128A11F5210A128A11DF
:10097800ED3083120313B9008930BA00BB01BB0AFA
:100988000A128A115A220A128A1102308312031398
:10099800BC003C08F00001300A128A11F5210A1245
:1009A8008A11FF3083120313B9008930BA0002306C
:1009B800BC003C08BB000A128A115A220A128A118A
:1009C800333083120313BE00BB30BD00DF30BC00E0
:1009D800BC0BEC2CBD0BEC2CBE0BEC2CA92C0A127E
:1009E8008A110028F7007708F600760883120313A7
:1009F800C3007508F6007608C400AE300A128A11E2
:100A080086220A128A11D5300A128A1186220A12FF
:100A18008A1180300A128A1186220A128A11A83095
:100A28000A128A1186220A128A113F300A128A1182
:100A380086220A128A11D3300A128A1186220A12D1
:100A48008A1100300A128A1186220A128A1140304D
:100A58000A128A1186220A128A118D300A128A1104
:100A680086220A128A117703031D3B2D3C2D432D44
:100A780010300A128A1186220A128A11492D14305E
:100A88000A128A1186220A128A1120300A128A1141
:100A980086220A128A1100300A128A1186220A1244
:100AA8008A11A1300A128A1186220A128A11C830C4
:100AB8000A128A1186220A128A11DA300A128A1157
:100AC80086220A128A1112300A128A1186220A1202
:100AD8008A1181300A128A1186220A128A11770332
:100AE800031D772D782D7F2D9F300A128A118622BB
:100AF8000A128A11852DCF300A128A1186220A120B
:100B08008A11D9300A128A1186220A128A117703A9
:100B1800031D8F2D902D972D22300A128A118622BF
:100B28000A128A119D2DF1300A128A1186220A12A0
:100B38008A11DB300A128A1186220A128A11403081
:100B48000A128A1186220A128A11A4300A128A11FC
:100B580086220A128A11A6300A128A1186220A12DD
:100B68008A112E300A128A1186220A128A11AF308F
:100B78000A128A1186220A128A11080083120313A4
:100B8800B70020300A128A1186220A128A1101300F
:100B98000A128A1186220A128A112030831203133C
:100BA8003702031CD82DD92DDF2D7F303702031CC7
:100BB800DE2DDF2DE32D3F30A5002508B7002408E2
:100BC8000319E72DE82DEE2D05302402031CED2D29
:100BD800EE2DF02DA401A40AB0010D2E83120313EB
:100BE8002408A5002508F00047080A128A113322B4
:100BF8000A128A11013A0319022E032E1F2E013000
:100C080083120313A5002508C7070130A50025088E
:100C1800B0072408FF3EA500FF3003180030A600E7
:100C28002608803A803C031D1B2E25083002031C31
:100C38001E2E1F2EF22D1630831203134702031C9B
:100C4800262E272E322EC701C70A450803192D2E36
:100C58002E2E322E2408A5002508C60721300A1298
:100C68008A1186220A128A11063083120313A500FC
:100C78002508F0004708FF3E0A128A11E0210A12EF
:100C88008A110A128A1186220A128A1105308312E1
:100C98000313A5002508F00024080A128A11E02190
:100CA8000A128A1183120313A6000630A700270828
:100CB800F00047080A128A11E0210A128A118312E9
:100CC80003132607F93E0A128A1186220A128A118C
:100CD80022300A128A1186220A128A1183120313F9
:100CE8004608FF3E0A128A1186220A128A118312C6
:100CF800031346082407FE3E0A128A1186220A12A6
:100D08008A110A128A11B7210A128A11831203134F
:100D18004408A500A6012508F0002608F1000A12DB
:100D28008A11C9210A128A114030F0000030F100FE
:100D38000A128A11C9210A128A1183120313B601F1
:100D48000030AD000030AC000030AB000030AA002D
:100D5800533037020318B12EB22ED92E0530A50014
:100D68002508F0003708E03E0A128A11E0210A122D
:100D78008A1183120313A6002608B3003608123E10
:100D8800A50088300318013EA60033082507840013
:100D980026080318260AFF000A128A1500200A12DC
:100DA8008A11A7002708B200FF2E0530A5002508E4
:100DB800F0003708AD3E0A128A11E0210A128A11A2
:100DC80083120313A6002608B3003608113EA500B7
:100DD80089300318013EA600330825078400260839
:100DE8000318260AFF000A128A1500200A128A111F
:100DF800A7002708B2002403031D032F042F112F77
:100E08003208A500A6012508F0002608F1000A12FC
:100E18008A11C9210A128A11AF2FB8010130A50021
:100E2800380A182F0310A50DFF3E031D162F25089D
:100E380032050319202F212F7B2FB501752F240888
:100E4800A5002508F00038080A128A11E0210A12C4
:100E58008A118312031335070739A6002608AE0046
:100E68000830F6000030F7003808A500A60125086C
:100E7800F0002608F1002408A700A8012708F200BE
:100E88002808F3000A128A110E220A128A11831204
:100E9800031335087007F800003003180130710794
:100EA800F9000A128A1114240A128A117608831288
:100EB8000313A9002908AF000130A5002E0A662FE8
:100EC8000310A50DFF3E031D642F2508A6002F085B
:100ED8002A3E84002608831380040130A5002508D3
:100EE800B50724083502031C7A2F7B2F232F0130E6
:100EF800A5002508B80708303802031C842F852F61
:100F0800122FB101A92FB4019F2F34082A3E840063
:100F180083130008A500A6012508F0002608F100A3
:100F28000A128A11C9210A128A1101308312031385
:100F3800A5002508B40724083402031CA42FA52FF4
:100F4800892F0130A5002508B10724083102031CA8
:100F5800AE2FAF2F872F013083120313A50025086A
:100F6800B60705303602031CBA2FBB2FA42E0A126F
:100F78008A11C0210A128A11831203132408A500BA
:100F88002508C70716304702031CCB2FCC2FD72FB5
:100F9800C701C70A45080319D22FD32FD72F240812
:100FA800A5002508C60720300A128A1186220A12CF
:100FB8008A1100300A128A1186220A128A11080040
:100FC8000A128A11B4210A128A11C5000A128A115A
:100FD800B5210A128A11C6000A128A11B6210A120C
:100FE8008A11C700BF01C001C101C201C301C40108
:100FF80083010A128A117D2CFF1B0A2883137F188C
:1010080083170008840A0319FF0A08007F087F393C
:101018008A000408840A0319FF0A82000034003495
:10102800003400340034003400345F3400340034B9
:101038000034073400340734003414347F34143453
:101048007F34143424342A347F342A341234233439
:101058001334083464346234363449345634203412
:1010680050340034083407340334003400341C345A
:101078002234413400340034413422341C340034E6
:101088002A341C347F341C342A34083408343E345F
:101098000834083400348034703430340034083470
:1010A80008340834083408340034003460346034B8
:1010B8000034203410340834043402343E345134BB
:1010C800493445343E34003442347F3440340034AB
:1010D800723449344934493446342134413449342A
:1010E8004D3433341834143412347F3410342734E4
:1010F80045344534453439343C344A344934493428
:101108003134413421341134093407343634493404
:1011180049344934363446344934493429341E3440
:10112800003400341434003400340034403434348F
:101138000034003400340834143422344134143474
:101148001434143414341434003441342234143430
:101158000834023401345934093406343E344134F5
:101168005D3459344E347C341234113412347C34A6
:101178007F3449344934493436343E344134413477
:10118800413422347F344134413441343E347F3455
:1011980049344934493441347F34093409340934F1
:1011A80001343E3441344134513473347F3408348B
:1011B800083408347F34003441347F3441340034F7
:1011C8002034403441343F3401347F3408341434FB
:1011D800223441347F3440344034403440347F3406
:1011E80002341C3402347F347F340434083410341D
:1011F8007F343E344134413441343E347F34093401
:101208000934093406343E344134513421345E34CF
:101218007F3409341934293446342634493449345E
:1012280049343234033401347F34013403343F34D5
:101238004034403440343F341F3420344034203468
:101248001F343F344034383440343F34633414342A
:1012580008341434633403340434783404340334E1
:101268006134593449344D34433400347F34413483
:101278004134413402340434083410342034003406
:101288004134413441347F3404340234013402346B
:10129800043440344034403440344034003403345F
:1012A8000734083400342034543454347834403407
:1012B8007F3428344434443438343834443444345F
:1012C8004434283438344434443428347F3438346B
:1012D8005434543454341834003408347E340934C3
:1012E80002341834A434A4349C3478347F34083459
:1012F800043404347834003444347D3440340034C5
:101308002034403440343D3400347F3410342834A1
:1013180044340034003441347F34403400347C3465
:1013280004347834043478347C3408340434043491
:10133800783438344434443444343834FC3418343D
:101348002434243418341834243424341834FC3421
:101358007C34083404340434083448345434543461
:1013680054342434043404343F34443424343C3472
:101378004034403420347C341C342034403420340D
:101388001C343C344034303440343C344434283405
:101398001034283444344C349034903490347C34B1
:1013A8004434643454344C344434003408343634CB
:1013B80041340034003400347734003400340034CD
:1013C80041343634083400340234013402340434ED
:1013D800023445346D3462346534643464346534BD
:1013E8006434743468346534723465342E34633448
:0E13F8006F346D3400344834693421340034CD
:08400000FF3FFF3FFF3FFF3FC0
:02400E00393F38
:00000001FF
